:100000000C9462000C948A000C948A000C948A0070
:100010000C948A000C948A000C948A000C948A0038
:100020000C948A000C948A000C948A000C948A0028
:100030000C948A000C948A000C948A000C948A0018
:100040000C94E2050C948A000C94AC030C94F3031A
:100050000C948A000C948A000C948A000C948A00F8
:100060000C948A000C948A000000000024002700F1
:100070002A0000000000250028002B0000000000DE
:1000800023002600290004040404040404040202DA
:100090000202020203030303030301020408102007
:1000A0004080010204081020010204081020000012
:1000B0000007000201000003040600000000000029
:1000C0000000590511241FBECFEFD8E0DEBFCDBF21
:1000D00011E0A0E0B1E0EEE1FDE002C005900D927C
:1000E000A832B107D9F711E0A8E2B1E001C01D9232
:1000F000A43EB107E1F710E0C4ECD0E004C02297C1
:10010000FE010E948906C23CD107C9F70E94A905D9
:100110000C948D060C940000CF93DF93EC010097B4
:1001200099F480910C010E945903009721F4809169
:100130000C0161E006C0019709F047C080910C01F5
:1001400060E00E94050341C08130910599F48091DF
:100150000E010E945903009721F480910E0161E085
:1001600006C0019709F046C080910E0160E00E9430
:10017000050340C08230910599F4809110010E94DE
:100180005903009721F48091100161E006C00197A6
:1001900009F045C08091100160E00E9405033FC056
:1001A0008330910591F4809112010E9459030097C8
:1001B00021F48091120161E005C00197C9F5809199
:1001C000120160E00E94050333C0C430D10591F4F0
:1001D000809114010E945903009721F48091140129
:1001E00061E005C0019769F58091140160E00E940B
:1001F000050327C0C530D10591F4809116010E94F6
:100200005903009721F48091160161E005C0019720
:1002100009F58091160160E00E9405031BC0C03102
:10022000D10531F480910C0161E00E9405031BC0EF
:10023000C131D10531F480910E0161E00E940503C6
:100240001BC0C231D10531F48091100161E00E94E0
:1002500005031BC0C331D10531F48091120161E067
:100260000E9405031BC0C431D10531F480911401F3
:1002700061E00E9405031BC0C531D10531F48091B6
:10028000160161E00E94050318C0C032D10531F4A7
:1002900080910C0160E00E94050315C0C132D105B8
:1002A00031F480910E0160E00E94050312C0C23259
:1002B000D10519F48091100110C0C332D10519F491
:1002C000809112010AC0C432D10519F48091140141
:1002D00004C0A59729F48091160160E00E940503EF
:1002E000DF91CF9108958CEB91E00E94B404181631
:1002F00019061CF080E090E004C08CEB91E00E94B5
:10030000E5040E948C0008958091280180932901C2
:1003100080912A0180932B0180912C0180932D01E3
:1003200080912E0180932F018091300180933101C3
:100330008091320180933301809100010E94590322
:10034000019721F481E08093280102C010922801D6
:10035000809102010E945903019721F481E080936A
:100360002A0102C010922A01809104010E945903BF
:10037000019721F481E080932C0102C010922C019E
:10038000809106010E945903019721F481E0809336
:100390002E0102C010922E01809108010E94590383
:1003A000019721F481E08093300102C01092300166
:1003B00080910A010E945903019721F481E0809302
:1003C000320102C0109232019091280180912901DE
:1003D000891781F0913029F48CEB91E060E50E945F
:1003E000200580912801882329F48CEB91E060E6B8
:1003F0000E94200590912A0180912B01891781F09C
:10040000913029F48CEB91E061E50E942005809108
:100410002A01882329F48CEB91E061E60E942005F3
:1004200090912C0180912D01891781F0913029F450
:100430008CEB91E062E50E94200580912C018823DD
:1004400029F48CEB91E062E60E94200590912E0148
:1004500080912F01891781F0913029F48CEB91E084
:1004600063E50E94200580912E01882329F48CEBFE
:1004700091E063E60E942005909130018091310166
:10048000891781F0913029F48CEB91E064E50E94AA
:10049000200580913001882329F48CEB91E064E6FB
:1004A0000E9420059091320180913301891781F0DB
:1004B000913029F48CEB91E065E50E942005809154
:1004C0003201882329F48CEB91E065E60E94200537
:1004D00008958091000160E00E94C60280910201AF
:1004E00060E00E94C6028091040160E00E94C602A2
:1004F0008091060160E00E94C6028091080160E0E0
:100500000E94C60280910A0160E00E94C6028091AA
:100510000C0161E00E94C60280910E0161E00E9420
:10052000C6028091100161E00E94C6028091120112
:1005300061E00E94C6028091140161E00E94C6023F
:100540008091160161E00E94C6028CEB91E040E8C8
:1005500055E260E070E00E942E0410923201109289
:10056000300110922E0110922C0110922A0110924B
:100570002801109233011092310110922F01109234
:100580002D0110922B01109229010895CF93DF9332
:10059000482F50E0CA0186569F4FFC0134914A57BC
:1005A0005F4FFA018491882369F190E0880F991FC9
:1005B000FC01E859FF4FA591B491FC01EE58FF4FA3
:1005C000C591D491662351F42FB7F8948C91932F51
:1005D000909589238C93888189230BC0623061F4C4
:1005E0002FB7F8948C91932F909589238C938881C1
:1005F000832B88832FBF06C09FB7F8948C91832BE1
:100600008C939FBFDF91CF910895482F50E0CA018E
:1006100082559F4FFC012491CA0186569F4FFC01D1
:1006200094914A575F4FFA013491332309F440C043
:10063000222351F1233071F0243028F42130A1F02D
:10064000223011F514C02630B1F02730C1F024302B
:10065000D9F404C0809180008F7703C0809180001E
:100660008F7D8093800010C084B58F7702C084B5E1
:100670008F7D84BD09C08091B0008F7703C08091C9
:10068000B0008F7D8093B000E32FF0E0EE0FFF1FEE
:10069000EE58FF4FA591B4912FB7F894662321F43B
:1006A0008C919095892302C08C91892B8C932FBFBC
:1006B0000895682F70E0CB0182559F4FFC01249173
:1006C000CB0186569F4FFC0144916A577F4FFB0137
:1006D0009491992319F420E030E03CC0222351F199
:1006E000233071F0243028F42130A1F0223011F5AC
:1006F00014C02630B1F02730C1F02430D9F404C042
:10070000809180008F7703C0809180008F7D8093DF
:10071000800010C084B58F7702C084B58F7D84BD02
:1007200009C08091B0008F7703C08091B0008F7DA9
:100730008093B000892F90E0880F991F84589F4FB5
:10074000FC01A591B4918C9120E030E0842311F05C
:1007500021E030E0C90108951F920F920FB60F9269
:1007600011242F933F934F938F939F93EF93FF9376
:100770004091C60020917401309175012F5F3F4F69
:100780002F73307080917601909177012817390787
:1007900059F0E0917401F0917501EC5CFE4F4083DB
:1007A0003093750120937401FF91EF919F918F9188
:1007B0004F913F912F910F900FBE0F901F90189562
:1007C000E091C801F091C901E05CFF4F81919191E6
:1007D00020813181821B930B8F739070892B11F0D4
:1007E0000E94730108951F920F920FB60F92112469
:1007F0002F933F938F939F93EF93FF932091B80193
:100800003091B9018091BA019091BB012817390745
:1008100031F48091C1008F7D8093C10014C0E091BC
:10082000BA01F091BB01E858FE4F20818091BA01D6
:100830009091BB0101968F7390709093BB01809350
:10084000BA012093C600FF91EF919F918F913F9144
:100850002F910F900FBE0F901F901895AF92BF92DF
:10086000DF92EF92FF920F931F93CF93DF93EC01F0
:100870007A018B01DD24403081EE580780E0680763
:1008800080E0780711F0DD24D39491E0A92EB12CFB
:10089000EC89FD89DD2069F0C5010E8C02C0880F4E
:1008A000991F0A94E2F7808360E079E08DE390E09D
:1008B00005C0108260E874E88EE190E0A80197011D
:1008C0000E94650621503040404050405695479563
:1008D0003795279580E12030380720F0DD2011F092
:1008E000DD24D6CFE889F9893083EA89FB89208322
:1008F000EE89FF89408121E030E0C9010A8C02C005
:10090000880F991F0A94E2F7482B4083EE89FF89EC
:100910004081C9010B8C02C0880F991F0A94E2F72D
:10092000482B4083EE89FF894081C9010C8C02C0AD
:10093000880F991F0A94E2F7482B4083EE89FF89BC
:1009400080810D8C02C0220F331F0A94E2F720959C
:1009500028232083DF91CF911F910F91FF90EF907B
:10096000DF90BF90AF900895DC011C96ED91FC9153
:100970001D97E05CFF4F2191319180819181281B6F
:10098000390B2F733070C9010895DC011C96ED916D
:10099000FC911D97E05CFF4F20813181E054F040D5
:1009A000DF01AE5BBF4F8D919C91119728173907DE
:1009B00019F42FEF3FEF07C08D919C91E80FF91FBD
:1009C0008081282F30E0C9010895DC011C96ED914B
:1009D000FC911D97E05CFF4F20813181E054F04095
:1009E000DF01AE5BBF4F8D919C911197281739079E
:1009F00019F42FEF3FEF10C08D919C911197E80FE4
:100A0000F91F20818D919C91119701968F739070A1
:100A100011969C938E9330E0C9010895FC01868560
:100A20009785DC01A05CBF4FFC01EE5BFF4F2D9171
:100A30003C9111978081918128173907C1F708955A
:100A4000CF93DF93EC01EE85FF85E05CFF4F2081C3
:100A50003181E054F0402F5F3F4F2F733070DF0142
:100A6000AE5BBF4F8D919C91119728173907D1F339
:100A7000E05CFF4F80819181E054F040E80FF91F66
:100A80006083EE85FF85E05CFF4F31832083EE8934
:100A9000FF89208181E090E00D8C02C0880F991FB2
:100AA0000A94E2F7282B208381E090E0DF91CF9138
:100AB00008951092BF011092BE0188EE93E0A0E06D
:100AC000B0E08093C0019093C101A093C201B093A4
:100AD000C3018CE191E09093BD018093BC0184E35C
:100AE00091E09093C9018093C80188E791E09093C9
:100AF000CB018093CA0185EC90E09093CD01809367
:100B0000CC0184EC90E09093CF018093CE0180ECF7
:100B100090E09093D1018093D00181EC90E090938C
:100B2000D3018093D20186EC90E09093D50180931D
:100B3000D40184E08093D60183E08093D70187E0DD
:100B40008093D80185E08093D90181E08093DA0118
:100B50000895CF93DF930E942A060E946902C0EE97
:100B6000D3E00E9484012097E1F30E94E003F9CFD3
:100B7000CF92DF92EF92FF920F931F93CF93DF9369
:100B80007C016B018A01C0E0D0E00FC0D6016D91FD
:100B90006D01D701ED91FC910190F081E02DC7012D
:100BA0000995C80FD91F015010400115110571F7A3
:100BB000CE01DF91CF911F910F91FF90EF90DF90C9
:100BC000CF9008951F920F920FB60F9211242F937A
:100BD0003F938F939F93AF93BF938091DF01909149
:100BE000E001A091E101B091E2013091E3010196B1
:100BF000A11DB11D232F2D5F2D3720F02D570196FC
:100C0000A11DB11D2093E3018093DF019093E001CA
:100C1000A093E101B093E2018091DB019091DC01AE
:100C2000A091DD01B091DE010196A11DB11D80935F
:100C3000DB019093DC01A093DD01B093DE01BF9155
:100C4000AF919F918F913F912F910F900FBE0F9079
:100C50001F901895789484B5826084BD84B58160B6
:100C600084BD85B5826085BD85B5816085BDEEE6B4
:100C7000F0E0808181608083E1E8F0E01082808193
:100C800082608083808181608083E0E8F0E0808101
:100C900081608083E1EBF0E0808184608083E0EB21
:100CA000F0E0808181608083EAE7F0E08081846009
:100CB0008083808182608083808181608083808165
:100CC000806880831092C1000895A1E21A2EAA1BA9
:100CD000BB1BFD010DC0AA1FBB1FEE1FFF1FA217EC
:100CE000B307E407F50720F0A21BB30BE40BF50BE9
:100CF000661F771F881F991F1A9469F76095709572
:100D0000809590959B01AC01BD01CF010895EE0F38
:0E0D1000FF1F0590F491E02D0994F894FFCF99
:100D1E000200030004000500060007000800090099
:100D2E000A000B000C000D00000000002005B805A5
:080D3E00B404E504C5040E0530
:00000001FF
